:020000040001F9
:102000003DB8F39600000000000200000C28040018
:1020100000000000000000000000000000000000C0
:10202000FFFFFFFFFFFFFFFFFFFFFFFFFFFFFFFFC0
:10203000FFFFFFFFFFFFFFFFFFFFFFFFFFFFFFFFB0
:10204000FFFFFFFFFFFFFFFFFFFFFFFFFFFFFFFFA0
:10205000FFFFFFFFFFFFFFFFFFFFFFFFFFFFFFFF90
:10206000FFFFFFFFFFFFFFFFFFFFFFFFFFFFFFFF80
:10207000FFFFFFFFFFFFFFFFFFFFFFFFFFFFFFFF70
:10208000FFFFFFFFFFFFFFFFFFFFFFFFFFFFFFFF60
:10209000FFFFFFFFFFFFFFFFFFFFFFFFFFFFFFFF50
:1020A000FFFFFFFFFFFFFFFFFFFFFFFFFFFFFFFF40
:1020B000FFFFFFFFFFFFFFFFFFFFFFFFFFFFFFFF30
:1020C000FFFFFFFFFFFFFFFFFFFFFFFFFFFFFFFF20
:1020D000FFFFFFFFFFFFFFFFFFFFFFFFFFFFFFFF10
:1020E000FFFFFFFFFFFFFFFFFFFFFFFFFFFFFFFF00
:1020F000FFFFFFFFFFFFFFFFFFFFFFFFFFFFFFFFF0
:10210000FFFFFFFFFFFFFFFFFFFFFFFFFFFFFFFFDF
:10211000FFFFFFFFFFFFFFFFFFFFFFFFFFFFFFFFCF
:10212000FFFFFFFFFFFFFFFFFFFFFFFFFFFFFFFFBF
:10213000FFFFFFFFFFFFFFFFFFFFFFFFFFFFFFFFAF
:10214000FFFFFFFFFFFFFFFFFFFFFFFFFFFFFFFF9F
:10215000FFFFFFFFFFFFFFFFFFFFFFFFFFFFFFFF8F
:10216000FFFFFFFFFFFFFFFFFFFFFFFFFFFFFFFF7F
:10217000FFFFFFFFFFFFFFFFFFFFFFFFFFFFFFFF6F
:10218000FFFFFFFFFFFFFFFFFFFFFFFFFFFFFFFF5F
:10219000FFFFFFFFFFFFFFFFFFFFFFFFFFFFFFFF4F
:1021A000FFFFFFFFFFFFFFFFFFFFFFFFFFFFFFFF3F
:1021B000FFFFFFFFFFFFFFFFFFFFFFFFFFFFFFFF2F
:1021C000FFFFFFFFFFFFFFFFFFFFFFFFFFFFFFFF1F
:1021D000FFFFFFFFFFFFFFFFFFFFFFFFFFFFFFFF0F
:1021E000FFFFFFFFFFFFFFFFFFFFFFFFFFFFFFFFFF
:1021F000FFFFFFFFFFFFFFFFFFFFFFFFFFFFFFFFEF
:1022000000C70120CDC00200D5BA0200B9C002004B
:10221000B9C00200B9C00200B9C00200000000004D
:1022200000000000000000000000000095C2020055
:10223000B9C002000000000031C20200B9C00200B3
:1022400081C402001907040081C4020081C4020095
:1022500081C4020081C4020081C4020081C4020062
:10226000E506040081C4020081C4020001070400E5
:1022700081C4020081C4020081C4020081C4020042
:1022800081C4020081C4020081C4020081C4020032
:1022900081C4020081C4020081C4020081C4020022
:1022A00081C4020081C4020081C4020081C4020012
:1022B00081C4020081C4020081C4020081C4020002
:1022C00081C4020081C4020081C4020081C40200F2
:1022D00081C4020081C4020081C4020081C40200E2
:1022E00081C4020081C4020081C4020081C40200D2
:1022F00081C4020081C4020081C4020081C40200C2
:1023000001F0FF01102A2BDB10F0070F08D010F8A6
:10231000013B013A8B422DD010F0070F42B3F6D1AA
:10232000F0B441EA012141EA014122F007047FF0C3
:1023300000070023F0E80256083C85EA010586EA1A
:10234000010685FA47F5A3FA87F586FA47F6A5FA56
:1023500087F68EB9EED1F0BC01F0FF0102F0070262
:1023600032B110F8013B013A83EA010313B1F8D10D
:102370000020704701387047002D06BF35460338EE
:10238000073815F0010F07D1013015F4807F02BF27
:10239000013015F4C03F0130F0BC0138704700BF78
:1023A00053B94AB9002908BF00281CBF4FF0FF31BC
:1023B0004FF0FF3000F00CB8ADF1080C6DE904CE21
:1023C0000BF00CFFDDF804E0DDE9022304B07047F8
:1023D000704700BF2DE9F00791E8F807B2E8021056
:1023E0005B1854EB0C04B2E802104D4156EB0C069E
:1023F000B2E802104F4158EB0C08B2E8021059EB5A
:1024000001095AEB0C0A80E8F80780410130BDE869
:10241000F00770472DE9F00791E8F807B2E80210DD
:102420005B1A74EB0C04B2E802108D4176EB0C06DB
:10243000B2E802108F4178EB0C08B2E8021079EB99
:1024400001097AEB0C0A80E8F80780414042BDE8B8
:10245000F00770472DE9F007524290E87800B1E8A4
:1024600080071740DB1918EA020854EB080419EA40
:10247000020955EB09051AEA020A56EB0A0678C06A
:1024800090E87800B1E8800717407B4118EA02081D
:1024900054EB080419EA020955EB09051AEA020A85
:1024A00056EB0A0678C080410130BDE8F00770475E
:1024B0002DE9F007524290E87800B1E88007174014
:1024C000DB1B18EA020874EB080419EA020975EB31
:1024D00009051AEA020A76EB0A0678C090E8780045
:1024E000B1E880071740BB4118EA020874EB080402
:1024F00019EA020975EB09051AEA020A76EB0A06DF
:1025000078C080414042BDE8F00770472DE9F001F6
:1025100052424FF0040890E8300091E8C000A31B3D
:102520001340E41AF618EB1B1340ED1AFF1830C0E5
:10253000C0C1B8F10108EED1BDE8F001704700BF9D
:1025400000B592E8DC072DE9DC07B1E8805702B45A
:10255000A7FB02510A95A8FB020BE7FB6310E9FBFE
:1025600062B00B91A8FB0351EAFB6201E7FB64B583
:10257000E7FB6605E8FB6615CDF830B0A9FB03B6AE
:10258000EAFB6316ECFB6356E8FB640BE9FB641B98
:10259000EAFB645BECFB646B0D90ACFB0230059CCA
:1025A000EEFB6250E9FB6460EAFB64B0E7FB643178
:1025B000E8FB6451069CE8FB6461E9FB64B1EAFB5B
:1025C00064010E93A7FB0432079CE7FB6462E8FBFF
:1025D00064B2E9FB6402EAFB6412049CE9FB645305
:1025E000EAFB6463089CE7FB64B3E8FB6403E9FB74
:1025F0006413EAFB64230F955DF8049B99E80006D9
:10260000DDF80080A9FB0854EAFB68B4DDF810800F
:10261000ECFB6804EEFB6814E9FB6824EAFB683411
:10262000DDF80480EEFB6865E9FB68B5EAFB680548
:10263000DDF81480ECFB6815EEFB6825E9FB6835D6
:10264000EAFB68450F96DDF80880AEFB0876E9FBEB
:102650006806EAFB6816DDF81880ECFB6826EEFBDE
:102660006836E9FB6846EAFB6856DDF80C80ECFB4F
:1026700068B7EEFB6807E9FB6817EAFB6827DDF837
:102680001C80ECFB6837EEFB6847E9FB6857EAFB08
:10269000686708B000BD00BF2DE9F14F87B0FFF7B4
:1026A0004FFFDDF81C8008F1200888E8FF00FFBC20
:1026B00087E87F08BDE8F08F00B591E89857A3FB45
:1026C00003520195A3FB0401E3FB6420E3FB6710C5
:1026D0000292A3FB0752E3FB6802E4FB6415E3FBF1
:1026E0006805E3FB69250391A4FB07B6E3FB6926B4
:1026F000E3FB6A56E4FB670BE4FB682BE3FB6A5BD6
:10270000E3FB6C6B0490A4FB0810E4FB6950E3FB53
:102710006C60E3FB6EB0E7FB6721E4FB6951E4FB0F
:102720006A61E3FB6EB1E4FB6E010592A7FB083220
:10273000E4FB6A62E4FB6CB2E4FB6E02E7FB6E1240
:10274000E7FB6853E7FB6963E4FB6CB3E7FB6C03EF
:10275000E7FB6E13E8FB6E230695A7FB0954E7FB26
:102760006AB4E7FB6C04E8FB6C14E8FB6E24E9FB3D
:102770006E34E8FB6865E7FB6AB5E8FB6A05E8FBD1
:102780006C15E9FB6C25E9FB6E35EAFB6E45079697
:10279000A8FB0976E8FB6A06E9FB6A16E9FB6C26EA
:1027A000EAFB6C36EAFB6E46ECFB6E56E8FB69B75B
:1027B000E9FB6907E9FB6A17EAFB6A27EAFB6C3762
:1027C000ECFB6C47ECFB6E57EEFB6E6700BD00BF89
:1027D0002DE9F14F87B0FFF76FFFDDF81C8008F19E
:1027E000200888E8FF00FFBC87E87F08BDE8F08F7D
:1027F00030B44FF0000310F8014B11F8015B013ABF
:1028000084EA050443EA0403F5D1A3F101034FEA86
:10281000D37030BC704700BF4FF0000310F8012B9D
:10282000013943EA0203F9D1A3F101034FEAD3705E
:10283000704700BF30B411F8014B12F8015B6C40D7
:1028400000F8014B013BF6D130BC70472DE9F00791
:1028500091E8F807B2E802105B1854EB0C04B2E8F8
:1028600002104D4156EB0C06B2E802104F4158EBF6
:102870000C08B2E8021059EB01095AEB0C0A894125
:10288000B3F1FF3374F1FF3475F1FF3576F10006D3
:1028900077F1000778F1000879F101097AF1FF3A40
:1028A00051F100015B184C414D4156F1000657F1C2
:1028B000000758F1000859EBD1795AEB010A80E87A
:1028C000F807BDE8F00770472DE9F00791E8F80731
:1028D000B2E802105B1A74EB0C04B2E802108D41EE
:1028E00076EB0C06B2E802108F4178EB0C08B2E8E8
:1028F000021079EB01097AEB0C0A89415B184C4113
:102900004D4156F1000657F1000758F1000859EB08
:10291000D1795AEB010A80E8F807BDE8F007704763
:1029200018EB040859EB05095AEB060A5BEB070B99
:102930005FF0000C4CF1000C18EB050859EB060990
:102940005AEB070A5BEB070B50EB0C005FF0000C37
:1029500051EB0C0152EB0C0263414CF1000CB8EB53
:10296000070879F100097AF1000A7BEB040BA84112
:10297000B141A241B3416CF1000CBBEB050BB0417E
:10298000B941AA41BB416CF1000C4CF001068CF03E
:10299000020718EB060859EB6C095AEB6C0A7BEB43
:1029A0006C0B70EB6C0471EB6C0572EB670653EB10
:1029B0006C076CEB6C0C18EB0C0059EB0C015AEB30
:1029C0000C025BF1000354F1000455F1000556EBD5
:1029D000DC7657EB0C0770472DE9F14F87B0FFF716
:1029E000AFFDDDF81080DDF81490DDF818A0FFF7DA
:1029F00097FFBDE8000FFFF793FF03B05DF8048B6E
:102A000088E8FF00BDE8F08F2DE9F14F87B0FFF7B0
:102A100053FEDDF81080DDF81490DDF818A0FFF704
:102A20007FFFBDE8000FFFF77BFF03B05DF8048B6D
:102A300088E8FF00BDE8F08F2DE9F3472B4FC41D58
:102A40000D1E7B788DF8043024F00704BB788DF8D8
:102A50000530064601A90CBF2046002000F0ECFB23
:102A600097F800807B784FF0000A984404445FFA9E
:102A700088F8D1465FFA8AF343452DD3E01C20F055
:102A80000304002D49460CBF2046002000F0E4FC62
:102A9000B978204471B1FB78FA7B033020F003044D
:102AA000002D1A44D2B27B890CBF2046002000F0D2
:102AB00047FD2044397B59B1BB784BB1073020F03A
:102AC0000704002D0CBF2046002005F029F8204403
:102AD000801B02B0BDE8F0873B7AFA79B979787942
:102AE0000CF065FA0AF1010A8144C3E7B012002034
:102AF0008FB572B6194B9D6AE5B9BFF34F8F184970
:102B0000184BCA6802F4E0621343CB60BFF34F8FE7
:102B100000BFFDE7B4FBF6F4DAB20133002CF9D1C3
:102B200002F110036B440A2603F80C4C32B901A8D9
:102B3000A847E2E7044600230A26EDE7531E04AC4B
:102B400054FA83F4DAB2C3B2B3FBF6F706FB1733D9
:102B5000303304F80C3CB0FBF6F0E7E7B01200208D
:102B600000ED00E00400FA051FB5104B1A7A8DF84D
:102B70000920DA798DF8082002A89A795B79ADF8F6
:102B80000C20ADF80A3003F02BFB18B1B52103205F
:102B9000FFF7AEFF012301A88DF804300DF00AFE07
:102BA00008B1B921F3E705B05DF804FBB0120020CD
:102BB00038B5054680B30AF0E5FF10B94FF0FF3095
:102BC00038BD07F001FEB0F5FA7FF7D8154C16486E
:102BD000A562002500F0ECF926222946204684F85B
:102BE0002C5084F82D500BF087FA01236370A370EA
:102BF0001B23637140F21B33E380022323721F23E4
:102C0000638108232373EFF3108472B600F070FD24
:102C10002CB962B62046D3E76FF01500D0E72846FE
:102C2000CEE700BFB0120020692B010010B50028CC
:102C300037D1204C94F82C3083BB59B1002A33D0C3
:102C4000023905292DD8DFE801F003101E2C2124BC
:102C50001378637001210020FFF7EEFEB0F5803F8E
:102C600025DA012384F82D3010BD9378E3B1D378B1
:102C7000D3B113781A2B17D953781A2B14D9136898
:102C8000C4F80530E6E71378A370E3E7138863819F
:102C9000E0E71388FF2B07D82373DBE74FF0FF3003
:102CA000E2E76FF02C00DFE76FF01500DCE76FF074
:102CB0000B00D9E7B012002070B50D460646F0B102
:102CC000E9B111F007041AD100F0B0F8D0B13046E4
:102CD0000BF004F80D4E214686F82E002846FFF72B
:102CE000ABFE0EF071FF96F82E00214603F00CFBB0
:102CF000FFF73AFF012386F82C30204670BD6FF0B5
:102D00001500FBE74FF0FF30F8E700BFB0120020DE
:102D100010B5084C94F82C302BB103F00DFB94F84F
:102D20002E000AF0F7FF0CF031FA002084F82C0096
:102D300010BD00BFB012002050B1074B03F11402C8
:102D400053F8041B40F8041B9342F9D1002070474C
:102D50006FF01500704700BF88340500074B93F8EB
:102D60002D2010B532B993F82C401CB903F096FA17
:102D7000204610BD4FF0FF30FBE700BFB01200202F
:102D8000074B93F82D2010B532B993F82C401CB99D
:102D900003F098FA204610BD4FF0FF30FBE700BF6C
:102DA000B0120020074B93F82D2010B532B993F8DC
:102DB0002C401CB903F03EFA204610BD4FF0FF3006
:102DC000FBE700BFB0120020074B93F82D2010B591
:102DD00032B993F82C401CB90DF002FD204610BD0D
:102DE0004FF0FF30FBE700BFB0120020074B93F815
:102DF0002D2010B532B993F82C401CB90DF0F3FC1E
:102E0000204610BD4FF0FF30FBE700BFB01200209E
:102E100007C8024B83E8070000207047E01200203B
:102E2000014B9B68184700BFE0120020024B9868D6
:102E3000003818BF01207047E01200202DE9F3414F
:102E4000284E031D04463360304604F0F7F902288B
:102E5000054607D1234920460BF05CFB284602B00B
:102E6000BDE8F081042836D13378072B18D13E20F5
:102E700000F04EF878B9F378327901A943EA0223D9
:102E80006846ADF800300BF02CFE0028DCD0532152
:102E90000820FFF72DFE052000F07AF80028EAD080
:102EA000314620460BF09BFBB0F5817F01D37221A8
:102EB000EEE70028C8D0277894F80280384600F062
:102EC00027F80028C0D03E2FC8D1404600F060F857
:102ED0000028C3D1B8E70828C0D1024920460BF02A
:102EE00048FBBBE7EC120020074B4FF0FF3141F6E7
:102EF000FF72C3E9001205490022C1E900221F2127
:102F0000C3E90212704700BF000000203013002008
:102F10003F280CD801380B4BC0F3421200F01F00C1
:102F200053F8223023FA00F000F001007047FF2828
:102F300006D04038C0F34212034B00F01F00EFE709
:102F40000120704700000020301300200146074B8D
:102F5000006849681A4603C240F48C221A6041F0A6
:102F6000107242F4FF625A60704700BF00000020F8
:102F70000246024B0068516803C3704730130020BB
:102F80000246024B0068516803C3704708000020E6
:102F90000138064BC0F3421203EB820300F01F001E
:102FA0009B6823FA00F000F0010070470000002049
:102FB000014B1860704700BF3813002010B5FFF7B1
:102FC00093FF0CF0E6FF034B1B68044603B19847E0
:102FD000204610BD381300200B880288F0B5C3F3DB
:102FE0000E049EB204F11803C57CC35A05352A4469
:102FF0002B4497B213FA82F3013B4288B3FBF7F3F9
:1030000013FB07439BB29A42044A93BF22EA06038A
:10301000324013439BB20B80F0BD00BF0080FFFF26
:1030200010B5114B00EB41041A786389B3FBF2F33E
:1030300003FB0223013A1A44B2F5706F027928BFEC
:1030400000231A448378B2FBF3F0194403FB1020E9
:10305000091AB1FBF3F003FB101313446FEA434367
:103060006FEA5343638110BD3C13002010B5104B31
:10307000C0B15A78022A04D040F259111720FFF744
:1030800037FD03225A70026812F0070102D04FF494
:10309000AF71F3E75C685A6022440260C3E9031130
:1030A0009A6010BD0122C3E901005A70F9E700BF20
:1030B0003C1300202DE9F041254E96F801E00EF07A
:1030C000FD0CBCF1010F04D040F273111720FFF783
:1030D0000FFD91F80680B8F1080F02D940F2751182
:1030E000F4E7CF7997B34546022D726838BF0225C1
:1030F0007B1D5C0002EB43036A1E13446D422B40B0
:103100008D884544013DC8F100022A404FF6FE7506
:10311000AA4202D94FF4C071D8E7BEF1030F12D111
:1031200006EB80001C1BC56815B140F28511CDE788
:10313000C460A770228084F803C0087A09682071EF
:10314000080CE080218107FB02337360BDE8F08149
:103150003C1300202DE9F041364C6378012B65D0FB
:10316000032B04D040F295111720FFF7C1FCD4E9DE
:1031700001329A4202D04FF4CC71F5E7A446002305
:103180005CF80C6F23701D4601229E465CF82210ED
:10319000571E49B108798A78FF2829D181F804E0BF
:1031A00095423CBFD5B201230022002FEED003B1DF
:1031B0002570256925B3002640F6FF67AB78F1B28C
:1031C0008B421DD905EB410328465F81FFF728FF9D
:1031D0000136F3E776B196F8048080450CD1B078DB
:1031E0000244FF2A0AD903B125704FF49A71BBE754
:1031F000002FEFD00020F3E73846F1E70871CFE762
:10320000E56875B1002640F6FF67AB78F1B28B42F6
:1032100007D905EB410328465F81FFF701FF01361F
:10322000F3E7042363700020BDE8F08102236068A7
:103230006370F9E73C130020F0B585B01B4E009099
:1032400004460D4630B17378022B02D00020FFF700
:10325000F3FF6846FFF70AFF154A2B78019208270B
:103260004FF43872002001A9ADF808208DF80B301A
:103270008DF80C008DF80A70FFF71CFF6B780D4A73
:1032800001928DF80B304FF48872FF2301A90120C1
:10329000ADF808208DF80C308DF80A70FFF70AFFA2
:1032A000FFF758FF7068001B05B0F0BD3C1300200D
:1032B0006B1B0200BDF20100F8B54FF6FF730380EF
:1032C000184B03EB81030546D868B8B186780379BB
:1032D000B3FBF6F206FB1233DBB219460A1D00EB14
:1032E0004202B2F902705488002F09DB0131B1FBB0
:1032F000F6F206FB1211C9B28B42EFD10020F8BDE5
:10330000FF29FBD0C4F30E03C4782B8024B940F20C
:10331000C7211720FFF7ECFB5380BDE8F8400BF006
:1033200025BE00BF3C1300201E4B03EB810370B58C
:10333000DC6805464CB3B0F5706F04D340F2D5217C
:103340001720FFF7D5FB014620460BF0F1FDFF28C3
:10335000014604D02046BDE870400BF007BEA078BF
:10336000B5FBF0F300FB1353DBB219460A1D04EB67
:103370004206B6F90260002E09DB0131B1FBF0F222
:1033800000FB1211C9B28B42F0D1002070BDFF29A1
:10339000FBD08B4204EB42021CBF0023E37055803C
:1033A000D8E700BF3C130020094B03EB810310B5A5
:1033B000DC68014620460BF0BBFDFF28014604D027
:1033C0002046BDE810400BF0D1BD002010BD00BF6D
:1033D0003C1300200F4B03EB810370B5DC68014602
:1033E000064620460BF0A4FDFF28054610D00146F6
:1033F00020460BF0BBFDE2882389014643EA0243E5
:103400003046984720462946FFF70AFE002070BD47
:103410000320FCE73C13002038B50E4B827903EB08
:1034200082030446D86808B9022038BD8278E17961
:103430009142F9D24B1CE37100EB41035D89B3F972
:103440000A30002BF3DBA5800BF090FD20600020FC
:10345000EBE700BF3C13002070B5044610F00300FA
:103460000E4603D049211820FFF742FB0BF004FD64
:10347000054624B10348314604600BF0FDFC2846A4
:1034800070BD00BF501300202DE9F04F1E4C85B0D9
:1034900092462268BDF83CB098468146BDF8383067
:1034A0000D461AB95B211820FFF722FB1A460A21A4
:1034B000504603930BF08BFB5A46064609214046C3
:1034C0000BF085FB3118074620680BF000FD039BCD
:1034D000C9F8000018B9286005B0BDE8F08F84195C
:1034E0002C60D9F800000093524631460A230BF0B5
:1034F00020FB2868CDF838B009234246394605B08C
:10350000BDE8F04F0BF015BB5013002070B50E4610
:1035100004460BF065FB054630460BF061FB044B9F
:103520002A1821461868BDE870400BF0FABC00BFAD
:1035300050130020014B18680BF0BCBC5013002046
:10354000F8B511441D4EC9B210F00305317003D017
:103550004E210920FFF7CCFA1F2B19D89B009BB2F4
:10356000033323F003039BB208B17060338101EB96
:1035700081047668E2004FF0010C00EBC404EFB266
:10358000B94212D8D01D03FB010020F00700F8BD9E
:10359000FF2B4FEA430204D9FF339342DFDB93B2A0
:1035A000DEE77C2AFBDC7C23DAE710B186F800C07A
:1035B0007460013528361C44E1E700BF5413002035
:1035C00038B5144A147853680021C8B2844203D82D
:1035D000A9210920FFF78CFA184601310578283314
:1035E000002DF2D0012412894470002144688170BA
:1035F0008161C161920800F12001051D21F8022BB3
:10360000994245F8044B1444F8D1002343610370F8
:1036100038BD00BF541300202DE9F8434B78804695
:103620000C4602F0040602F0FB07D3B1DFB12F4BCA
:10363000D4F804901D89BFBB01236370AD08A76156
:10364000E76104F120034A46211D04F1280023F814
:10365000025B984241F8042B2A44F8D100236361AD
:1036600001E0002FE3D0002E4FF0FF0318BF022629
:10367000A370A3191B7D032B03D1022F1CBF01369E
:10368000F6B2A31901221A7506F10C0204EB8606A4
:10369000002324F812307268A370C8F80020A8F83C
:1036A00004304046BDE8F883002114226170A01860
:1036B0000AF022FDB5F5FF7F0FD26B08ED1AADB20F
:1036C00009EB0502C4F804902584A2606384C4F861
:1036D0000C90A5842261E384C5E7B5F5EE6F4FF049
:1036E000FF03EBD940F27265EAE700BF54130020F4
:1036F000134B012200214FF0FF309A60C3F80012F3
:10370000C3F80803C3F80015C3F804259A60C3F88A
:103710000803C3F80015C3F804250A490A4A03F54B
:1037200080334FF40040C3F80825C1F88000BFF390
:103730004F8FBFF36F8FC1F88001C3F80825704722
:1037400000F0004000E100E00000F63F0A461A23C6
:1037500002F8033B0448C368C1F8033003695360AF
:1037600043699360704700BF60130020024B5A8C7E
:1037700002435A845B6A184760130020014B002102
:103780005B6A18476013002010B5114C06F02EF943
:1037900005F08CFD208DFFF7F1FF237E6BB12246F3
:1037A0000C4952F80C3BE36063685360A368936074
:1037B00004F1190002220DF030FDE36A94F82A109A
:1037C00094F82B009847002384F8303010BD00BFD8
:1037D000601300204D370100034B93F830300BB1DC
:1037E000FFF7D2BF704700BF6013002070B51D4CBB
:1037F000A56B236CE36395F8A330064694F8440068
:103800000BB10430C0B295F86D102EB9FF2803D16A
:1038100095F86C308B4201D005F0B2FF95F8A330DB
:10382000D3B1A06C06F064FA012384F86830D5E9BE
:103830004023A16CE06BC4E9182305F0F5FC16B930
:10384000304606F093FA95F86C10002006F0D8FA8E
:10385000022384F8303070BDE06B06F049FA05F0C1
:1038600025FDECE7601300202DE9F743404C94F868
:103870003030A66B012B05460F465FFA83F804D063
:1038800040F25C412720FFF733F996F890303BB1C6
:10389000002186F890100420FFF768FF86F89280D8
:1038A000A16F0B7803F00303032B05D196F8963034
:1038B00013B90220FFF75AFFA26F137803F0030336
:1038C000032B03D05378002B3ED1012386F896308A
:1038D00096F8A330B3B1D6E94001A36B94F84490B5
:1038E000C4E918014FF0010893F86D0084F868806E
:1038F0000BF04EFC0022034600921E494A46404609
:1039000005F04CFCDDB9D7B1E36F28469847B0B15C
:1039100094F82A309BB994F88030D906C3F300128A
:103920005CBF236C1D78D4F884305CBFC5F30015F0
:10393000C5F1010553B9B4F888303BB132B903B0D1
:10394000BDE8F043FFF720BF0223BFE7638C9A076F
:1039500009D5A36FDB78022BF1D1002003B0BDE8BD
:10396000F043FFF743BF002DE9D1002BF5D0E6E788
:1039700060130020B013002008B5094B93F83020E5
:10398000022A04D040F23D212720FFF7B1F8DA7A6D
:1039900042F00102DA72BDE80840FFF7F5BE00BF51
:1039A00060130020044B93F8302002F0FF000AB9A6
:1039B000187670470C207047601300200A4B0B4AA2
:1039C00070B506460D461A60FFF7ECFF18B1DF210F
:1039D0002720FFF78DF8064C012104F18A000DF035
:1039E0000DFB2664A56470BD4000002098410100D5
:1039F00060130020024B012283F8AC20704700BF07
:103A0000601300202DE9F043814C85B002AE86E8BA
:103A1000030094F830100C9F01F0FF0511B90AB1B2
:103A200003B127B94FF4A8712720FFF761F896E892
:103A3000030004F1340C8CE8030084F8AC5084F8E3
:103A40002A5084F8AD5084F82B5084F8AE50658429
:103A50002585A56BE3676262E76205F0CFFE05F09E
:103A600025FC95F9700005F055FF686A06F032F9FB
:103A7000E86905F055FF95F8B30005F077FFA36BF3
:103A800093F80C320BB105F0A7FE95F86D100120EC
:103A900006F03CF8002800F0B7805E4B5E4E1868D8
:103AA00006F01EF92B69C4F8B0306B69C4F8B43065
:103AB00005F58C7705F5847318685968324603C29A
:103AC0000833BB421646F7D1D5F81821C4F869204F
:103AD0005A68524B5A60A36B93F89D20A2F12501BE
:103AE000012993F86C100E4603D993F89E002528FF
:103AF00056D193F8B6322BB1012E03D0012B14BF4F
:103B00000226012605F13407314638460DF019FC2E
:103B100031460DF0B0F8B5F8403095F86D1083429D
:103B200028BF0346384684F8B8300DF0F3FB95F80B
:103B30006D1095F8A360B5F84880082908BF0421E6
:103B40000DF099F80EB9043080B2404528BF4046C8
:103B500095F8A3305FFA80F884F844809BB1D5E9EA
:103B6000406795F86D004FF00109C4E9186784F8C3
:103B700068900BF00DFB0022034600922649424656
:103B8000484605F00BFB0120FFF730FE244BD3F82D
:103B9000503523F00803032B2AD14FF4FD7143E77E
:103BA000203A012A0CD8232893F83E210AD012F09B
:103BB000010319D19207A5D5012918BF0226A1E753
:103BC00023280DD193F83E2193F86530134013F06C
:103BD00001020BD19B0795D5012908BF0E46ECE7E2
:103BE000042908BF08268DE71E468BE7164689E79D
:103BF000002323606360A360B5F8943063802B8852
:103C0000238095F8B330237105B0BDE8F08300BF81
:103C10006013002040000020B0130020C9130020D2
:103C20000010004008B50C4B93F830201AB9BDE8DD
:103C30000840FFF7A9BD93F83020022A04D040F2D3
:103C400013212720FEF754FF9B6BD3F82002BDE819
:103C5000084006F05FB800BF60130020014B1876E3
:103C6000704700BF60130020014B93F8AE0070470F
:103C700060130020024B188DC0F38020704700BFF6
:103C800060130020014B93F8AD00704760130020D3
:103C90002DE9F3411E4D8207AC6B06460F4622D537
:103CA000D5F8843023B940F24D412720FEF720FF9C
:103CB000B5F88820E96B1846033291F801800AF0C4
:103CC000A3F90DF1020201A9E863D5F8B4000BF0E5
:103CD000C9F801980BF0B0F8012238604146D5F8D8
:103CE000B4000BF055F8F3070ED5D4E94032013398
:103CF00042F10002C4E9403294F89830012B0CBF25
:103D00000023012384F8983002B0BDE8F08100BFA1
:103D1000601300202DE9F04F9C4C002387B0CDE9C3
:103D2000043394F83030A76B022B8146884604D0C8
:103D300040F2CF412720FEF7DBFE238D5B0606D441
:103D40004020FFF71BFD238D43F04003238597F8A8
:103D5000A330B9F1000F00F00A81A3B105F0D4FA45
:103D600005F0B8FA78B9E36B5A7862B11B7897F826
:103D70009820C3F3C0039A4205D1012384F82B3065
:103D8000FFF702FD47E1E36B5978A4F8881011B3FF
:103D9000D4F8B4000AF0D2FFC4F88400238D97F859
:103DA000972043F480732385E36B1B78C3F3800370
:103DB0009A4200F0B180A56B95F89630002B3ED06A
:103DC000022B12D1D4F8B00004A90AF04EFF28B992
:103DD00040F2CB31AEE7C4F88410DFE7D5E93E32DC
:103DE000013342F10002C5E93E3295F892300021DC
:103DF00085F8961023B185F892101020FFF7B6FCD5
:103E000095F891309BB1002685F8916002F06AFC2C
:103E100010B940F2E2318DE731460820FFF7A6FCE9
:103E2000D5E93E32013342F10002C5E93E3295F850
:103E30009730012B0CBF0023012385F89730238D89
:103E400043F4806323854FF0000BE16B97F89820D3
:103E50000D78C5F3C0039A427ED105F00305032D0A
:103E6000A66B5BD0002D64D196F89830013B18BF4B
:103E7000012386F89830E36B5B7833B1D6E94032A2
:103E8000013342F10002C6E9403297F8A23093B103
:103E9000D7E93E23A16B002691F86C0084F8686096
:103EA000C4E918230BF074F9394900960346FB2244
:103EB000304605F073F9B8F1000F6BD194F8AD30CE
:103EC000012B67D8E36F01209847002862D094F84F
:103ED0002AA0BAF1000F5DD1A66B94F8443096F891
:103EE000A3208DF80D80002A40F09880FF2B96F8D3
:103EF0006C1003D196F86D308B4202D0FF2005F094
:103F00003FFC96F89630032B00F22F81DFE813F088
:103F100089000E0111012401CB4696E7238D012073
:103F200043F4006386F890002385FFF71FFC00250B
:103F30009AE74B78002BFAD0228DD4F8845042F4C3
:103F400000622285002DA0D0FB2B07D894F8AC305E
:103F50005BB12020FFF712FC002596E794F82A3089
:103F600043F0100384F82A30F6E74D467CE70BB1A6
:103F700005F000FA94F8AD30013384F8AD30238DAC
:103F8000002543F400732385AB467EE760130020D1
:103F9000B013002005F054FF4FF001081DB105A932
:103FA0000220FFF775FEBBF1000F0DD0B4F807201B
:103FB000B4F805301343B7F8942013431EBFB4F888
:103FC00009300133A4F80930B9F1000F00F0D580B1
:103FD000B4F805300133A4F80530002384F8AD307F
:103FE000694803F0D7FC049840B10AF025FFA16BA3
:103FF00000234372082201300DF0FDF8059B33B118
:10400000A16B00221A72059810220DF0F4F8B8F195
:10401000000F7FF4B5AE07B0BDE8F08F0433DBB21C
:1040200064E794F8B830ADF80E305848A6F85C3024
:1040300002F048FB00285DD0A16F8020FFF796FBBF
:10404000012386F8913096F89730A26FDB0003F0D9
:104050000801137803F0F3030B4396F898108900D6
:1040600001F004010B4323F0100103F00303032BC1
:10407000117002D1D378022B0FD0D4F8B0000AF01F
:104080003CFE40B9A36F1B7803F00303032B04D05D
:1040900002F03EFB08B94FF0100AA06F03784AEA1D
:1040A000030A80F800A096F8A230002B60D0437875
:1040B000002B5DD0A06C05F01BFE002384F8683057
:1040C000D6E93E23A16FA06CC4E9182305F0ACF833
:1040D00096F86D10012005F093FEA26F1188A4F8E8
:1040E000801091782A4A012384F8AE30917084F8C8
:1040F000303053E7D4F8B0000DF10D020DF10E0190
:104100000AF090FDA06788B196F8DB3073B99DF88E
:104110000D302BB903808370A06F01210CF06EFF6E
:10412000BDF80E10A06F0DF035F88CE7194BA367A2
:1041300089E7B6F85C30D4F8B000ADF80E300DF178
:104140000D020DF10E010AF06DFDA06700287FF44D
:104150007AAF40F2D621EDE50C4802F0B3FA002820
:104160007FF471AF40F2DF21E4E54FF43B71E1E50C
:1041700005F0BEFD05F09AF8AAE7B4F80730013360
:10418000A4F807302CE700BF94130020D8130020B8
:10419000E0130020EA13002079390100153D0100E9
:1041A00069380100D937010038B5074D044600F1E0
:1041B000510128680CF097FE94F850102868BDE86B
:1041C00038400CF09EBE00BF1C140020F8B5044619
:1041D0000E466588407F15F00401134618BF04F1B0
:1041E0005F01324602F052FDC20705460BD501239E
:1041F00084F85030607F02F0ADFD0368C4F85130A0
:104200008388A4F85530AB070CD5094E01273068D8
:1042100084F85E7004F15F010CF06CFE3068394682
:104220000CF078FE85F00400C0F38000F8BD00BFFC
:104230001C14002038B5C38D0E4D0133C385AB7CF3
:1042400004462BB105F0C2FD04F050FF0023AB740F
:1042500000232B7194F869302BB101212046BDE871
:1042600038400BF0F3BB637C13B1E28D9A42F4D279
:104270000021F3E71C14002070B5294C2379022B90
:1042800007D02379032B04D040F6EC412D20FEF714
:104290002FFCA0B90125A37C1BB105F097FD04F00C
:1042A00025FF002D3AD0E0690BF048FB002830D004
:1042B00005F09CFB236ABDE870409B6818472168A5
:1042C000E26911F8095B02F15103E80992F8502004
:1042D0000CF0E1FB0028DDD0206800210CF040FE4E
:1042E0000028D7D02379E069022B05D02379032B4E
:1042F00002D040F6C541C9E72379226A03F1804321
:104300005269023B05F00F0152F8233098470546E9
:10431000C1E7E069BDE87040FFF78CBF70BD00BF2A
:104320001C1400202DE9F04104460E4619B300F19B
:10433000280528460BF03EF9A0B963881A072DD549
:1043400028460BF04EF9074628460BF033F9381A89
:10435000C0B20BF056F9594A93680344284693605B
:104360000BF004F928460BF006F905F0FFFA217965
:10437000252005F005FA514D94F85E702868002359
:1043800003806388103B0D2B61D8DFE803F05E608B
:104390005A0C603F606060606060603F2046BDE82E
:1043A000F041FFF747BF002102F002FE2A681378B0
:1043B00023F0200343F0200313702046FFF7F4FEA0
:1043C000638823F008039BB2152B05D094F838209E
:1043D000616B28680CF0A5FD286805F089FC0423B2
:1043E0002B7136B16388102B36D12179002005F06E
:1043F000C3FA6388103B0D2B5AD8DFE803F05C59F1
:10440000535359535959595959595953012102F084
:10441000CFFD2868037823F0200343F020030370C6
:1044200047B104F15F010CF065FD012128680CF033
:1044300071FDC2E704F158010CF05CFD94F85710CF
:10444000F4E7062102F0B4FDB7E70221FAE740F2F3
:1044500049612D20FEF74CFB04F128084046EF6827
:104460000BF0BFF8064640460BF0A4F8013E301AA8
:1044700061882822C0B200F09FFC63881B070744B4
:1044800006D5AB681F440BF0B9F83844C4F8D00027
:1044900022793946002005F0A1FB0028A9D140F679
:1044A0006151D6E721790120BDE8F04105F0A8BCB3
:1044B00040F67551CDE7BDE8F08100BF1C14002027
:1044C00038B54388102B044604D1BDE8384001219B
:1044D000FFF728BF0B4DAB7C23B104F0EDFD40206E
:1044E00005F068FC286805F003FC608810F0040003
:1044F00002D1217905F084FC002005F037FC02236D
:104500002B7138BD1C140020024B0121D869FFF724
:1045100009BF00BF1C14002010B5134CA37C1BB1B5
:1045200005F054FC04F0E2FDE0690BF007FA70B10D
:104530002379E069022B0FD12379226A03F18043AA
:10454000D268023BBDE8104052F823301847E069BA
:10455000BDE81040FFF76EBE2379032BECD040F688
:10456000F4312D20FEF7C4FA1C14002018B1084BBA
:10457000D869FFF75FBE51B1054A1379116AD06956
:10458000096903F18043043B51F823301847704711
:104590001C1400202DE9F043032985B00546904600
:1045A0007ED090F8683003F0FF02002B7DD1052902
:1045B00004D16B88DE0760D5002A5ED10127DFF8C1
:1045C000F09099F81260B6B10CF0A9FA082888F8B2
:1045D000000014D002AA0DF1070102F027FB20B958
:1045E00040F63D712D20FEF783FA9DF8070002A9E1
:1045F0000DF0A6F9064698F80030082B08D1D9F836
:10460000001011F8030BC0F380100DF099F9064665
:10461000D9F8001095F8572011F8030B05F158034D
:10462000C0F380100CF037FAD9F80010044611F8E6
:10463000030BC0F380100CF068FA814602F09CFB7B
:10464000014640B1B9F1080F1BD0484602F014FAF8
:1046500080F00101C9B298F80000082815D094B97B
:104660006B7F1C1A604260416B885A0706D421B9DF
:1046700096B9EB7C93B1BB4210D0002005B0BDE8E9
:10468000F0830021E7E70120EEE714B181F0010497
:10469000E4B204F00100E7E73046EFE70120EDE780
:1046A00043889B07E9D5022789E70529E5D180E7FB
:1046B0001C140020032973B5054604D0052955D0E4
:1046C000012002B070BD08230DF107028DF80730FC
:1046D000FFF760FF0028F3D02B7C294E0BB39DF829
:1046E000070095F8B630E3B92B7885F8B73008287D
:1046F00005F1B9022BD005F1B80102F097FA20B903
:1047000040F6BA712D20FEF7F3F995F8B83043F072
:10471000020385F8B8301B49022205F1AE000CF007
:104720006AFD306800240421048002F041FC284620
:10473000FFF73AFD95F84020E96B30680CF000FC7B
:1047400030680523337105F0D3FA2046B9E73068A5
:10475000034613F8031BC1F3801185F8B810D0F895
:104760000310C5F8B9109B889380D4E7064B1B68EB
:1047700023B1984780F00100C0B2A2E71846A0E735
:104780001C140020C7F10100440000202DE9FF4760
:1047900008230DF10702052104468DF80730FFF7C5
:1047A000F9FE074620B90027384604B0BDE8F08777
:1047B0007B4E3168F27C11F8030B06F11403C0F351
:1047C00080100CF068F980460028ECD1256A326828
:1047D00095F8A530117803EA511303F0010385F829
:1047E000A530D2F80F30EB61537D117D1B0443EAF5
:1047F0000123D17C0B436B62B2F819000CF085FAEF
:104800003368A86181460146987D0CF082FA3368CE
:10481000A8854946B3F817000CF084FA3368A862FB
:10482000B3F81B202A84B3F81D206A8493F824204F
:1048300002F01F0285F8B120D3F81F00029093F810
:1048400023308DF80C3002A905F1A5000CF0A1FA77
:10485000336893F824305B0985F80D3240F2011378
:10486000A5F86C304FF0FF0A05F1340085F86EA012
:10487000414602F09BFD284694F912100CF03BFAD9
:10488000256A84F873802B88A4F8743084F891A08A
:104890004FF6FF73A4F89230A8699DF807900CF0CA
:1048A0002EFA2B8CA4F88C306B8CA4F88A00A4F818
:1048B0008E3095F80D3284F89030237F04F17E021B
:1048C00083B394F85030012B2CD194F8563003F078
:1048D000C003402B26D1D4F85130C4F87E30B4F850
:1048E0005530306893800346B9F1080F13F8032B55
:1048F000C2F3801284F87720D0F8030004F1780224
:1049000004F1840144D0C4F884009B888B8048461D
:1049100004F1770102F08AF940B940F64A412D20AE
:10492000FEF7E6F80023C4F87E30DAE794F8773033
:1049300043F0020384F877301A49022204F16A0036
:104940000CF059FC236A18491A88A4F8AB2093F894
:10495000A53084F8AD30022204F1A2000CF04BFC2B
:10496000124B206A1B68002232710BB12146984716
:104970003368226AD3F80310C2F80310B3F80710A3
:10498000A2F807101B78226AC3F3801393700BE719
:10499000A0679B8893800023C4F884308B80CBE78A
:1049A0001C140020DFF10100B1F1010048000020DB
:1049B00010B50B4B1A798AB11A79DC69022A02D038
:1049C0001A79032A05D19B7C1BB105F0FFF904F08D
:1049D0008DFB2046BDE81040FFF72CBC10BD00BF8A
:1049E0001C14002010B50948037903F0FF0453B9E3
:1049F00018222146043009F07FFB05F0E7F904F0A6
:104A000075FB204610BD0C24FBE700BF1C140020E2
:104A100010B5094C002323712060FFF7E3FF20B19C
:104A200040F21E312D20FEF763F8236A13B940F2DD
:104A30002131F7E710BD00BF1C140020014B024AD2
:104A40001A6270471C140020604D0100034B044A99
:104A50001A60044B044A1A60704700BF44000020EB
:104A60008D47010048000020195901002DE9F0414F
:104A7000067DB31EDBB2012B04468CBF4FF000084D
:104A80004FF001087EB3B71E18BF0127012B36D89F
:104A900000F1580190F857000CF037F80828054647
:104AA0002DD001F0F5FF58BB657784F81C8084F8A1
:104AB000507002F0B5F805460DF065FB174BA5FBED
:104AC00003351B1845EB01050022C4E9123584F8B3
:104AD0005E2011462046FFF779FB70B940F2B641DF
:104AE0002D20FEF705F83746082504F15101002076
:104AF00001F034FE0028D7D10020BDE8F081082560
:104B0000022EF2D0E37E002BF6D0D4F81530C4F894
:104B10005130B4F81930A4F85530C5E740420F00C1
:104B20002DE9F041604D2B7986B0044603F0FF0774
:104B3000002B40F0B7800378FF2B00F0B3805B4B75
:104B400002935B4B03935B4B04932B6A6F715B681F
:104B500080F8697002A805932F82AF60AF7105F0ED
:104B6000BFF804F04BFE05F031F904F0BFFA5248EB
:104B700004F0D6FE04F12806504805F0ABF83046A4
:104B80000AF0F4FC30460AF0F6FC04F0EFFE21795E
:104B9000252004F0F5FD94F9120004F0BBFE217904
:104BA000384604F0B3FFE86028B901232B7138467A
:104BB00006B0BDE8F08104F13401206B0AF055FA2B
:104BC00004F13C018046206B0AF076FA0646B8F103
:104BD000000F03D094F82430002B3DD10EB194F88F
:104BE0002560237F13B963885A070AD5D4E91212C6
:104BF0006FF000439A4208BFB1F1FF3F2ED1002E63
:104C000034D12868033002F02FF86388A874DB07DA
:104C1000CDD50023266ACDE90033FF23EB7406F1DE
:104C20000A086846FEF7F8FB0028C0D1009CA6429F
:104C3000F7D0727A607A434604F10A010BF02BFF39
:104C40000028EED0A378EB74D4F8030068611C4B05
:104C5000B4F807209A80AAE70126C2E70DF093FA7C
:104C6000D4E91223904271EB0303C8D3012206EA70
:104C700002012046FFF7AAFA68B101F0D1FF06460B
:104C80000DF081FA0F4BA6FB03361B1846EB01060D
:104C9000C4E91236B5E7002EB3D040F614212D201A
:104CA000FDF726FF0C2782E71C14002019450100A0
:104CB000794201006D450100D6BE898E55555500DB
:104CC0003014002040420F0038B50546FFF728FF9A
:104CD000044638B9044B1B79012B03D00146284602
:104CE000FFF720FB204638BD1C140020024BD86182
:104CF0001B6A1B68184700BF1C14002008B5044B32
:104D00001B79012B01D1FFF795FA002008BD00BFE8
:104D10001C14002043881B0710B5044612D5036AF3
:104D20000A493C2280F873201B88A0F87430FF23C6
:104D300080F891304FF6FF73A0F8923002226A306B
:104D40000CF059FA012384F8693010BDDFF101003D
:104D5000B5460100C14401003FF2010039F20100F3
:104D6000C94C0100B1490100094501005C4D010039
:104D7000544D0100504D01000138022808B503D9F7
:104D8000CA212F20FDF7B4FE13290A4B05D811299B
:104D90000CD8102907D0D821F3E71529FBD103EB54
:104DA0004003D88801E033F8100008BD03EB40034E
:104DB0009889FAE7DCB4040008B5431EDBB2012B86
:104DC00005D91D291ED0EE212F20FDF791FE1039A7
:104DD0000D291BD8DFE801F0071A11111A0C1A1A55
:104DE0001A1A1A1A1A160B4A02EB4303588A08BDFC
:104DF000084A02EB4303D88AF9E7064A02EB430369
:104E0000588BF4E740F25A335843F0E74FF481717E
:104E1000DAE700BFDCB404000B2808B504D940F27F
:104E20004F310620FDF764FE014B33F8100008BD3A
:104E3000FCB404002DE9F04F8BB0044615460293F4
:104E4000894690F86DB00BF016FD064694F80D02F9
:104E5000FFF7E2FF94F89E300393064485F00103C8
:104E6000B6B2059355BB94F85432032B26D1039B5D
:104E70000D2B23D1B4F8B4324B451FD1D4F85C329A
:104E8000C4F84832A369B4F82622C4F84C32B4F806
:104E90009A321344C4F85032204604F07DF8D4F816
:104EA000B832A362B4F8B632A385D4F8BC32A36199
:104EB000D4F8C0322362022384F85432B4F89872D2
:104EC000B4F89480A9EB07073FB204F51C73A9EB73
:104ED0000808002F04930FFA88F86EDAD4E9A223A9
:104EE0004746C4E9A42301230493CC4B1B7803F069
:104EF000FF05002B54D005F0E7FC054600284FD0F5
:104F0000B4F83C32012B6DD994F85432022B69D09D
:104F100094F86A52002D65D194F80D02FFF77CFFDA
:104F200094F8543200F5C866012BB6B2D9B24CD110
:104F300094F8A130D4F828A0032B40D1D4F84C52D7
:104F400055443146D4F84C0205F014FCD4F84832EC
:104F5000C4F84802A0EB030AD4F850323146284680
:104F600003FB0AFA05F006FCD4F85852C4F85802BC
:104F7000451B3146A06905F0FDFBAA44B4F8265252
:104F8000D4F850324544ED1BDB432B44D4F85C523B
:104F9000451B05FB03A50123C4F85C0284F86A32B3
:104FA00094F85432DFF874A2032B00F28281DFE818
:104FB00013F01B0016016B003701029B94E7284693
:104FC0000BF083FE00EB0A05BBE7A069314605F054
:104FD000D1FBB4F82652D4F85C324544ED1BC31A19
:104FE0005D43D8E70025DBE7012100200BF06DFED3
:104FF0008046A06A3146404405F0BCFB3146C4F807
:105000005802A06905F0B6FB07A9C4F85C0208A81D
:1050100004F01EFF079B0093D4E9A401DDE90823F7
:1050200008F094FC834620460AF025FCD4F8A03210
:10503000A66A94F86D001E4405F036F8D4F85812AC
:10504000A6F120077F1A00F523404FF47A734744F6
:10505000A130B0FBF3F0A38DA7EB0B0730313F1A63
:1050600003EB410194F86D000AF0CFFAD4F8A032B6
:10507000FB1A2230B3F5C87FCAF8040055D840F2B5
:10508000ED413020FDF734FDA36AD4F84C023146DF
:10509000184405F06FFB3146C4F85802A06905F0CA
:1050A00069FBC4F85C0220460AF0E5FBB4F826323E
:1050B000A66AD4F84C72002B40F08C80029B002B27
:1050C00000F0888094F86DB0584604F0EDFF374446
:1050D000D4F8A422D4F8583204938046203F58468E
:1050E000174404F0D9FF049BFF1A3F1A08F5234820
:1050F00008F1A1084FF47A70B8FBF0F8A7EB0807A5
:10510000D4F85812D4F84832D4F8502294F86D00EC
:10511000303102FB0311A38D03EB41010AF075FA54
:105120000123CAF8040084F85432A669D4F85C322A
:10513000A6F21B26F61ADAF804309E4228BF1E4655
:105140006E23A4F87832D4E9A4327F1BDF1942F130
:1051500000024FF00008C4E9A072C4F8206284F88D
:10516000708204F134000CF0D3F8B4F81012A4F8F3
:105170009892D4E9A023A1EB09090FFA89F9C14556
:10518000C4E9A423C8BF022384F87A82C8BF84F884
:105190007A32039B06440D2BC4F87462029B00F024
:1051A0008B80002B40F0898094F85432002B00F063
:1051B000A280A169D4F85C3204F51C70C91A0BF006
:1051C00029FD80B2002800F09680149B03B118805E
:1051D0000120A0E0D4F8580237443F1A90E7D4F8F1
:1051E0005C22A369D4F85002D4F848129B1A5F439A
:1051F000B4F826329844C3439844D4F85832303334
:1052000001FB0033A18D94F86D0002FB083301EB24
:1052100043010AF0FAF9CAF8040086E740140020B6
:10522000A369D4F85C021B1A5F4394F89D30252BC8
:1052300003D094F89E30252B0AD1B4F8B432A9EBF0
:1052400003031B0404D494F8B732002B18BF9B4609
:10525000049B03B3B4F82632EBB9D4F8A43213B9E3
:1052600040F23F510DE794F86D0004F01DFFD4F8B3
:10527000A4320646203B94F86D00049304F00CFF22
:10528000049B1F44381A06F52343A1334FF47A7761
:10529000B3FBF7F7C71BB4F82612D4F85C324144CD
:1052A00059433031490058460AF0AFF91B4B58605A
:1052B0003BE740F25451E4E6EBB1B4F83C1221B3C1
:1052C000B4F83E2294F84032A4F83E2202FB0333A5
:1052D000994202F101000EDD94F87A325BB10023AD
:1052E00084F87A32A4F83E0202F0E8F800F00700F1
:1052F000013084F8400294F89C0204F51C7107F018
:105300001FFB20B940F29D51BBE60A46DAE7059B38
:1053100084F8683200200BB0BDE8F08F4014002004
:105320002DE9FF41044618B994213020FDF7E0FB38
:10533000082900F23281DFE811F0090080008A00BC
:105340008A00850030011C0124012E010023C0F8D1
:10535000A43290F86832B0F89420002B65D0B0F8F1
:10536000663293425BD1B0F81422A0F89420D31A8D
:10537000A0F81632D4E9A0232046C4E9A22303F002
:10538000EFFC94F81B32002B00F0B680A569D4F82E
:105390005C32DFF80C829D4288BFED1A98F8083025
:1053A00098BF00251BB9636B9D4228BF1D4604F1C1
:1053B00034000BF0ADFF064694F86D0004F074FE67
:1053C000D4F8203203F24517374400F55F404FF41C
:1053D0007A734130B0FBF3F00744022007F0E8FF96
:1053E000ED1B25EAE575854228BF054602212846C2
:1053F00008F02CF800B92F4440F2792239462046B3
:105400000BF0D2FFD4F82032C8F80C00A069184481
:1054100007F074FF00286FD140F2A33185E79A1A94
:10542000A0F81622A4F89430A4E7B0F864329A1ACF
:10543000A0F81622B0F86432F4E704B0BDE8F041F9
:105440000CF0ACBB04B0BDE8F04104F00DBD0CF0B5
:105450009AFED4E9A223801A61EB0301012871F1BD
:10546000000302DA40F21A615FE76FF00103834242
:105470004FF000038B4102DA40F21B6155E7A3694C
:105480000BB1B0FBF3F394F89E10B4F866220D292B
:1054900035D10132A4F86622B4F89A32B4F89450A7
:1054A0000133A4F89A32B4F8CE301D44B4F8CC30AD
:1054B000013DED1AADB20DF10E06B4F866126B1A8D
:1054C0001B0436D594F8A1303649002B0CBF3E237F
:1054D000082384F8BF3004F1B6000BF098FE204694
:1054E0000CF05EFB002384F8543294F89C0207F021
:1054F000B5F8202384F89C3204B0BDE8F081B4F8FC
:1055000094100B449BB2D11A090454BF531C0133AD
:105510009BB2A4F8663294F86932002BBCD1B4F87F
:105520001432B4F86622934204BF0133A4F8663201
:10553000B2E7002300961A462046FFF77BFC0028BE
:10554000DAD0012812D1B4F86622B4F81012BDF8EE
:105550000E301344521A12049BB204D5EA1A12F404
:10556000004F18BF0B46A4F86632A6E740F25A6116
:10557000DBE6012005F0C8F804B0BDE8F04109F011
:1055800015BE90F85432042B01D0B821CDE600238B
:1055900080F85432B0E7BE21C7E6C221C5E600BF9D
:1055A00040140020AD14020090F8E0302DE9F041E5
:1055B00004460D46164603F0FF0813B10C20BDE863
:1055C000F0810146474807F01FF820280746F5D02C
:1055D0005022414604F1C00008F08EFD012384F8FA
:1055E000C070C4F8C45084F8E03035B101F07EFFDB
:1055F00000F00700013085F8400220460AF018F854
:1056000000274FF48173A4F8F230A4F8F00084F876
:10561000E87005F0DFF8B4F8F050D23505442046C4
:1056200009F032FFADB2014668B30BF024F900F582
:10563000CD6189B2304605F09DF83044C4F8EC00E5
:105640000CF0A1FD281841F10001C4E93E01012040
:1056500084F8C800E78409F0D4FFDB3E361AC4F8AA
:10566000CC604FF0FF326FF00043C4E9402394F860
:10567000C00004F1E80107F063F930BB40F2E91122
:105680003020FDF735FA204609F022FE164FDB30B8
:10569000C4F8EC00388A40B1E08C30B101F026FF4C
:1056A0003B8AB0FBF3F202FB130005440CF06BFDE8
:1056B0002D1841F10001C4E93E51002ED1D07519D9
:1056C00041F10001C4E94051D1E7D4E93E2300256E
:1056D0002046C4E93623A4F8E250294609F0F0FE3A
:1056E00028466CE7C9F6010040140020F0B50023FD
:1056F00085B0CDE9003301238DF806306846FDF70B
:105700008BFE70B11B4E0123B3740027CDE90277E5
:1057100002A8FDF781FE0546A8B10020B07405B0CF
:10572000F0BD00980AF0E6F8E8E790F89C0207F070
:10573000C1FF94F89C0284F8545206F08FFF202396
:1057400084F89C32E2E7029B002BE1D093F89C2284
:10575000202ADDD018884FF6FF739842DDD0294605
:10576000FDF722FE04460028DFD140F21F11302051
:10577000FDF7BEF940140020054B002201211A72EA
:1057800019709A7442F210721A82FFF7AFBF00BF0D
:1057900040140020014B1872704700BF40140020D5
:1057A00008B503F0E7FF044BDA6882422ABF987C11
:1057B000002080F0010008BD401400202DE9F347CF
:1057C0000446052900F2A280DFE801F0037D6A7A31
:1057D000819BD0F8A432002B50D090F86A32002B75
:1057E0004CD090F85432032B48D190F86DA00BF0B8
:1057F00042F8064694F80D02FFF70EFB8046064479
:105800005046D4F8A47204F047FC3F1A504604F006
:105810004BFC00F2E7325046D4F820524FF47A792C
:10582000B2FBF9F2BF1A04F037FC2D1A504604F00F
:105830003BFC00F52340A130B0FBF9F02B1A5A08CD
:10584000B6B2603B08F5C868293273431FFA88F87E
:10585000B3FBF8F360335908A2EB53039F4202D322
:105860000A44974201D905F01BFAA069314604F0B9
:1058700081FF0023C4F85C0284F86A32254B9B7CCC
:1058800003F0FF0263B9B4F814120092012320461A
:10589000FFF7D0FA38B140F2E4613020FDF728F983
:1058A000042384F8543204F0EBF806F013FDB4F846
:1058B0009420A4F866220023A4F89A3284F869326E
:1058C00002B0BDE8F087032380F85432F8E703F014
:1058D0004BFF0546C4F8A40294F86D0004F0DCFB0D
:1058E000854202D24FF46A71D7E794F86D00D4F87C
:1058F000A45204F0D1FB074BDA6815442D1ADD6081
:10590000DEE702B0BDE8F04709F0B5BF4FF4EE6145
:10591000C3E700BF401400202DE9F84306460C46BB
:1059200015468ABB03F026FF0121D4E93E890746CC
:1059300084F8E050D4F8C40084F8C85084F8E1102A
:1059400001F076FAD4F8C400C0E9A28994F8C03016
:1059500080F89C32C0E9A489C0F8A07209F09FFFCA
:1059600020B140F227713020FDF7C2F804F088F82A
:1059700006F0B0FC074994F8C000324604F0B4FECB
:1059800028B940F28371EEE740F29A71EBE7BDE887
:10599000F88300BF21530100014B1882704700BFFC
:1059A00040140020F0B5070CA7F5AA42144B543A56
:1059B000012A03EA90231FD927F4004042F6AA22C5
:1059C000801A18BF01200022162116461F2487EADC
:1059D000060562EA0505013510D0DD03ADB245EAE2
:1059E0005606E503ADB2013945EA52024FEA5303C8
:1059F0004FEA5404EBD1F0BD0020E4E70020FAE7C1
:105A0000E0FF3F0010B501210020FDF7CDFC04466A
:105A100070B90121FDF788FC044620B940F21D3120
:105A20003920FDF765F8034B93F9001009F018FCD5
:105A3000204610BD58140020304BF0B55A88B0F8FD
:105A40006070B0F85E609D88974228BF1746964206
:105A500028BF16461B2E85B00C462ED0B5F5A47F68
:105A60002DD040F648039D4201A928BF1D460AF0EB
:105A70006EF9BDF80A309F4228BF1F46BDF80C30B2
:105A8000E780AB4228BF2B462381BDF806309E42FB
:105A900028BF1E46BDF8083066809D4228BF1D46BF
:105AA000A580FF232370E3881B3B9BB2E02B08D922
:105AB0004FF4B5613920FDF71BF81B2FCED105B08F
:105AC000F0BD63881B3B9BB2E02B02D940F2AA5188
:105AD000F0E72389A3F5A4739BB2B3F5E06F02D975
:105AE00040F2AC51E6E7A388A3F5A4739BB2B3F5EB
:105AF000E06FE4D940F2AE51DCE700BF581400205B
:105B000008B50AF0C7FF00F0CFFF00F045FC0BF02E
:105B100070FB01F025FA02F015F801F039FA084B94
:105B20001B224FF4A4715A809980064B06499A8033
:105B300000221960DA825A821A835A7408BD00BFA3
:105B4000581400207018002003021B00044B41F67B
:105B50004C52C3E902221B221A74FFF7D1BF00BFC7
:105B6000701800202DE9FF41344DAB68044640F821
:105B7000343F09F0F5FE064600F0FEFB10F0200F62
:105B800008BF1B222B7C1DBFAA886988A4F85E1061
:105B9000A4F85E2084F83C30A4F86020E68700F08A
:105BA000EBFB8B0706D5012302A88DF80830039480
:105BB00009F0ECFFAE7CEF7CB5F8148041F64C5355
:105BC000A36116B900F0DEFB064657BB00F0DAFB16
:105BD000074646B338B302A920468DF808608DF811
:105BE0000970ADF80A800BF06CF86B7801932B7894
:105BF00000936A88AB8804F1140104F11000FDF7EA
:105C000043FC236913B940F27F5114E0636913B96F
:105C10004FF4B0610FE0002004B0BDE8F08109202E
:105C2000FAE7002ED7D120880021FDF7D3FB00280A
:105C3000F5D040F272513920FCF75AFF701800205D
:105C4000F7B505460E4609F03EFB002873D02846FE
:105C500009F01AFC40B1B6F80130013B7F2B03D9A3
:105C60001224204603B0F0BD284609F011FC08B903
:105C70000C24F6E7284609F034FF0028F8D128461E
:105C800009F0DFFA04460028F2D12846FEF7EEFEBE
:105C90000028E5D0B6F80170F17842F2107328467A
:105CA0005F4309F0DEFB284609F0E6FB014658B9E0
:105CB0003A462846FFF778FC04460028D1D041F246
:105CC0009C713920FCF714FF21460DF10600FDF709
:105CD000F3FA064668B3214601F0AAF8BDF806308B
:105CE00033802846314609F0DDFB284609F0D6FB13
:105CF00098B9284609F0D4FB01463046FFF732FF39
:105D000004460028ADD13A4631462846FFF74CFC00
:105D1000044620B141F2BF71D3E70121EDE7074B03
:105D20009B68002B9DD0024606F599713046984736
:105D300097E70D2495E7422493E700BF581400200D
:105D40000378032B9FBF044A03F001030020D3759F
:105D500088BF1120704700BF70180020064B0188D3
:105D60009A88914206D3B0F8032091B211B11A83F8
:105D70000020704711207047701800202DE9F7436C
:105D80001E4FFB7D06469BBB0C2003B0BDE8F08395
:105D900006EB85036946B3F80390B3F801004C4461
:105DA000A4B20AF0D4FEF8B90198B0F8B4204A457C
:105DB0001CD3A2EB0902A0F8B42090F8BE204AB987
:105DC00090F8BF2032B1B0F8B4201AB94146B630CD
:105DD0000BF01DFA01353278ABB29A42D8D83B8B22
:105DE0001C443C830020D0E70220CEE71220CCE701
:105DF0000025DFF80C802C46EDE700BF701800206E
:105E0000AD140200034B5A8802801B788370002077
:105E1000704700BF7018002037B583781A2B0546ED
:105E200009D8042B05D9012202FA03F3134A1342BD
:105E300005D112241AE0292B01D03B2BF9D1288857
:105E4000B0F5706FF5D269460AF081FE88B9019B02
:105E500093F8302102F0FF046AB9AA7883F831215F
:105E6000FF2283F8302168460BF09EF9204603B0EC
:105E700030BD0224FAE70C24F8E700BF2000380404
:105E80000188A1F11B039BB2E02B0CD84288A2F53C
:105E9000A4739BB244F24810834204D8034B002001
:105EA00059809A8070471220704700BF5814002014
:105EB000034B5A889B88028043800020704700BFB4
:105EC0005814002038B504784278857804F001032E
:105ED00052EA030104F0020401D1112038BDBCB91B
:105EE000002DFAD0002B08BF144601E000242546FF
:105EF000204609F0E5FE0028EFD0284609F0E0FE34
:105F00000028EAD0054B00209C74DD749882E5E7F8
:105F1000002BEBD114461D46EAE700BF70180020A5
:105F200013B5008869460AF012FE18B10224204613
:105F300002B010BD019A92F85432DBB292F8BE2042
:105F4000002AF3D113F0FB0FF0D0019890F8423102
:105F50000BB13A24EBE790F8E63003F0FF04002B96
:105F6000F7D190F8DD309B0706D1012380F842314C
:105F700068460BF019F9DAE702490222DE300BF02D
:105F80004CF9D4E799180200F0B50778EF2F85B0E7
:105F900004460D4603D91225284605B0F0BDB0F8D9
:105FA0000130ADF80C309DF80C30DA063FD49E0677
:105FB00003F0030238D5002AEDD11807EBD463783B
:105FC000190711D42179E278E07942EA0122617956
:105FD00042EA0142A17941EA0021207A41EA0041E6
:105FE0008A42D8D81F2AD6D9627A013A062AD2D84C
:105FF000A27A032ACFD813F0040102D1023A012A6F
:1060000003D8E27A012AC6D811B9A27C032AC2D8E1
:1060100013F01001227D19D0012ABCD1227E012A61
:10602000B9D8B1B91125B7E7032AC6D1B3E713F040
:10603000600FB0D103F00F0203F00703052BBED0B1
:10604000931E012BBBD9002AA5D1B8E7022AE5D1BE
:10605000A1E7DA071FD46378227D03F0180108292D
:106060001ED1022ADED11B0709D4E279A37943EAC3
:106070000223227A43EA0243B3F5804FD2D8BFB25B
:1060800001213846FDF790F9064678B109F029FD5F
:10609000B8B10C2580E700F031F90028DBD1C1E769
:1060A000022AE0D0A27E002ADDD0BBE701213846DB
:1060B000FDF73AF9064650B3164B93F9001009F074
:1060C000CFF8304609F0D5F921462870E074304603
:1060D00009F01AF9637E0546002B3FF45DAF0028F6
:1060E0007FF45AAF316B02466846FDF795FA306B84
:1060F0002A46012108F09CFF316B68460422FDF717
:106100008BFA306B2A46294608F092FF44E70725B0
:1061100042E700BF5814002070B50579042D8AB0FD
:10612000034658D84488B4F5804F54D82B48465D70
:10613000284400214279857AC07BADF8041042F0F2
:10614000100242EA460242EA850242EAC00202F036
:106150001F028DF80420BDF80420ADF80D201A8828
:106160008DF80F208DF81240120A240A8DF81110B4
:106170008DF814108DF810208DF813405A7B8DF88F
:1061800015205A798DF816209A79D3F807008DF8E2
:106190001720B3F80B209B7B8DF81E307F238DF8E2
:1061A0001F3001238DF80C1006908DF82110ADF8EA
:1061B0001C208DF820308DF8223003A88DF8231094
:1061C0008DF824108DF825108DF8261001A9FFF701
:1061D000DBFE0AB070BD1220FBE700BF20B5040053
:1061E0000278034672B1427862B142881A2A09D90C
:1061F00082881A2A06D9044A006810609B88938016
:10620000002070471220704770180020024B02686F
:106210009A600020704700BF701800200378A3F137
:106220000A02112A9DBF024A0020137412207047EF
:106230007018002008B5052000F090F802F0DAFE92
:10624000014B024A9A6008BD58140020395A0100D7
:1062500008B5FEF7F3FBFFF78FFABDE808400148E9
:10626000FEF7D6BB6414002010B50B4C012384F854
:106270000231FEF7EBFB02F013F80AF009FC04F21E
:1062800003112046FDF79AFB002008F077FEBDE8D9
:10629000104000F0CBBF00BF6414002010B5064CC6
:1062A000064904F502700AF0A8FA04F503700449DF
:1062B000BDE810400AF0A1BA641400204C00002090
:1062C0005400002010B5094C094904F502700AF089
:1062D00094FA04F5037007490AF08FFA04F5047084
:1062E0000549BDE810400AF088BA00BF64140020D8
:1062F000640000206C0000205C000020014B93F83B
:10630000020170476414002010B5074C00F086FFAE
:10631000D4F808020AF069FAFFF718FC01F0FEF859
:10632000012384F8143210BD64140020014B93F84B
:10633000140270476414002010B5074CD4F80C0206
:106340000AF053FAD4F810020AF04FFAFFF7D8FB1C
:10635000002384F8143210BD64140020C2080549DB
:10636000012300F0070003FA00F08B5C1843885407
:10637000704700BF10000020014BD3E900017047B7
:1063800010000020034B1868C0F30020400040F0CC
:10639000010070471000002008B504F015FA084A03
:1063A000002332F82310814205D302EB83039B784C
:1063B000044A137008BD01330C2BF2D10023F7E718
:1063C00034B504007916002010B544682388A4F879
:1063D0009D3194F86C3084F89C11012B06D0022B6F
:1063E00004D04FF422710620FCF782FB84F89F3121
:1063F00094F86D30012B01D0022BF2D184F8A0313A
:106400000449022204F293100AF007FF002384F8E3
:106410003C3110BD7B080200406808490388A0F8A1
:106420008F3190F8643080F8913190F8653080F8C1
:10643000923100F5C3700AF0EABE00BF9108020075
:106440002DE9F743456895F89E3095F89D80232BFC
:1064500004460F462CD19E3538460AF084FE0028AB
:106460004CD038460AF079FE814638460AF077FE6D
:1064700001460AF061FA666848B396F86C309842B3
:1064800025D096F83C21012A0CBF96F83E2196F8BB
:106490006820114232D0B8F1210F18D096F865204B
:1064A000114214D153B94FF4B6710620FCF720FB0A
:1064B000B8F1210F40F0B3809D35CDE7042B01D01A
:1064C000042831D1984294BF00200120B0B9484639
:1064D0000AF032FA002849D096F86D30834245D050
:1064E00096F83C31012B0CBF96F83F3196F8693095
:1064F00019EA030F14BF01230023BBBB636893F8A1
:106500003C21012A19D11E212046FFF75DFFB8F179
:10651000210F1FD1FA786368182A83F8212110D03F
:1065200040F26D217E20C1E7082BCBD00828C9D0CE
:1065300098422CBF00200120C8E7002283F83C21AC
:10654000E5E7092283F89D2093F8D63093BB40F20B
:106550007521E7E7002320462B700AF06FFF3946CC
:10656000204603B0BDE8F0430AF08CBF304601AAD4
:1065700039460AF0EEF9D4F804800646F8B998F8DE
:106580003C31012B18D101462046FFF71DFF2E702C
:10659000636803F19E02954202D1002283F89E2097
:1065A000636803F19E0295424FF0000534D1204606
:1065B0000AF044FF002033E088F83C01E8E7384661
:1065C0000AF0CFFDA8F8B4026068B0F8B432B0F8B1
:1065D0009420013B9B1A9BB247F6FD72934207D968
:1065E000282380F8BF301049B6300AF010FED7E7F4
:1065F00090F89E300D2B02D00A3B012B01D82A23A4
:10660000EFE79DF8043080F8B6329DF8053080F849
:10661000B73225232B70C3E783F8D650CAE7022090
:1066200003B0BDE8F08300BFAD140200044B0022AC
:1066300083F822204FF6FF729A84DA841A85704715
:106640007A160020054B9A8C824201BF002283F803
:1066500022204FF6FF729A84704700BF7A160020FE
:10666000014BD884704700BF7A160020094A0346C0
:10667000908C4FF6FF71884206D192F822100129C2
:1066800005D01A6001207047002018607047002074
:10669000704700BF7A160020064B93F82220012A8B
:1066A0001FBF0120DA8C83F822009A8408BF0020E3
:1066B000704700BF7A160020014B1885704700BF55
:1066C0007A160020064B0246198D988C884205D117
:1066D00093F8220018B11360012070470020704722
:1066E0007A160020094B998C1A8D914201D0002016
:1066F00070474FF6FF729A8493F82220002AF6D052
:10670000002283F822200120704700BF7A16002063
:10671000054B998C1A8D914203BF93F82200B0FA71
:1067200080F04009012070477A16002050B90A4ACB
:106730001346012003F8010B0868C2F801008A889B
:106740009A807047012805D1034B0A689A608A88AD
:10675000D8719A81704700BFA416002048B90A4B2F
:10676000187880B1D3F80120B3F805300A608B8027
:106770007047012806D1044BD87920B19A680A6085
:106780009B89F4E700207047A416002020B9054B30
:10679000187800F00100704701280ABF014B002063
:1067A000D879F6E7A4160020F0B51A4B93F800C08C
:1067B00006460025E8B2844501D8082029E093F870
:1067C00053410A7893F854E193F85871624093F872
:1067D0005241744022444C7884EA0E04224493F8D7
:1067E00055E18C7884EA0E04144493F856E1CA7893
:1067F00082EA0E02144493F857E10A7982EA0E0203
:1068000022444C797C40D44205F1010503F1070391
:10681000D0D1F0BDB216002030B5094B01465C78EE
:10682000002203F58173D0B2844201D8082005E02C
:1068300013F8015B8D4202F10102F4D130BD00BFBB
:10684000B2160020F8B5304C6278013AD2B2231863
:10685000824293F80251627032D0130101019E1CF2
:106860008F1C2644274406F1100C56F804EB47F819
:1068700004EB6645F9D1823382312344214403F18C
:10688000100653F8047B41F8047BB342F9D1A618F3
:10689000211896F8023181F802314FF485770623EA
:1068A00013FB027213FB0070A318A258225004EBD2
:1068B000000C9B88ACF8043096F83A3181F83A31F4
:1068C0002846FFF7A9FF08281CD12378013BDBB23B
:1068D0009D42237016D007224FF4A97612FB036362
:1068E00012FB0560E218E3582350211893888B802F
:1068F000937920788B71FFF78FFF08281CBF24182D
:1069000084F80251F8BD00BFB2160020F0B5254D45
:1069100095F88A4189B0224605F28B11684607F046
:1069200073FB214668460AF0D4F80446B8B300EB7E
:106930004001C9B202A8FCF773FA601E95F8936192
:10694000C0B2012495F88A2105E0731CB3FBF2F173
:1069500002FB1133DEB206F120030DEB030111F847
:10696000203C002BF1D100EB400220326A4406EBC0
:1069700046032B4412F8187C83F8947112F8177CA4
:1069800012F8162C83F8957183F8962101F8204CA3
:106990000138AB19C0B2FF2883F88B41D2D109B0BE
:1069A000F0BD00BFB216002070B505468CB00C4695
:1069B000002A58D02E4890F89331C11891F88B21B5
:1069C00022B94FF480712820FCF792F803EB4302C0
:1069D0000244013392F89461E67092F8956192F85E
:1069E000962162710022267181F88B2190F88A210C
:1069F000B3FBF2F102FB113380F8933190F8B4311C
:106A000023B91C4900F5D6700AF004FC667906F03B
:106A10003F0646F0400666710D22002104A807F0EB
:106A20006BFBE3788DF81F3023798DF81E302B46F1
:106A30008DF81D606D4603F11006186859682A46E6
:106A400003C20833B3421546F7D1684607F0A0F8F1
:106A50009DF82F3023709DF82E3063709DF82D30F7
:106A6000A3700CB070BD03216018FCF7D9F9CDE715
:106A7000B21600200D690100044B5A78824286BF8D
:106A80001B1893F84A010020704700BFB21600207F
:106A9000044B5A78824286BF1B1893F842010020AB
:106AA000704700BFB2160020074B00224FF46171FF
:106AB0001A705A7083F8B52183F8B621A3F8B8117B
:106AC00083F8B421704700BFB2160020014B83F851
:106AD000B6017047B21600202DE9F04782461746EE
:106AE0009846FFF761FE082889460546064603D00A
:106AF000FFF792FE08285FD1314C6378072B5DD8F1
:106B0000082D19D12678731C072E237003D969210B
:106B10002820FBF7EDFF40F25312072313FB062357
:106B2000D9F80010E150E218B9F804309380C6EBB0
:106B3000C603234483F852A165784FEA051909F189
:106B400002006B1C10223946204463700AF018F8CA
:106B500009F182001022414620440AF011F8102168
:106B600040460AF001F82544102185F842013846D4
:106B700009F0FAFF85F80261667885F84A0100237A
:106B800085F83A3131460F4809F0A3FF31460546F2
:106B90000D4809F09EFF012D03D8002818BF0135CC
:106BA000EDB284F88A510025284684F89351FFF706
:106BB000ADFE2846BDE8F0871220FBE70720F9E785
:106BC000B2160020F4170020FC17002010B5064B69
:106BD0005878013840B2002800DA10BDC4B220460F
:106BE000FFF730FE601EF5E7B2160020014B83F878
:106BF000B5017047B2160020014B93F8B5017047FC
:106C0000B2160020431E9BB24AF2B71293429DBFB8
:106C1000024BA3F8B801012000207047B2160020F3
:106C2000014BB3F8B8017047B216002010B50D4BF8
:106C30005C78844214D9184490F80201C0EBC00477
:106C40001C4494F852410C70072140F2531411FB7C
:106C5000004158185B58136083889380012010BD51
:106C60000020FCE7B21600200246074810B590F855
:106C7000B54124B1417821B1023002F005FA204635
:106C800010BD0C46FBE700BFB21600202DE9F74F00
:106C90002F4C9A46637883428046894656D92318FA
:106CA00093F8425185F00105F9B193F84A31E3B9FF
:106CB00045F002070135BAF1000F18D1FA070AD5DD
:106CC000062101FB084104EB0810524601F58571CD
:106CD0008230FFF769FEBB0734D504EB081052463B
:106CE00049460230FFF760FE2CE02F46E3E794F8B8
:106CF00093614FF0010B002DE0D0A319019393F89D
:106D00008B1199B90092DAB100F0D8FB06EB46017D
:106D10002144019B81F894014FEA102C009A81F8DC
:106D200095C1000C81F8960183F88BB194F88A31F3
:106D30000136B6FBF3F103FB1166F6B2013DDAE76B
:106D400047F00407384603B0BDE8F08F0027F9E7A5
:106D5000B2160020074B5A78824209D91A1892F8C5
:106D600042212AB9062202FB003000F585707047E7
:106D700000207047B2160020064B5A78824281BF2D
:106D80001B1893F83A01B0FA80F0400998BF002030
:106D9000704700BFB2160020F8B50E460746062120
:106DA0003046154609F0E0FE044640B10A4829463F
:106DB000427800F59D7007F09FF92046F8BD3146F6
:106DC000384609F0A2FE08281FBF034BC018012453
:106DD00080F83A51F1E700BFB216002030B5002428
:106DE000A0F84C40B0F8504042F210754C43B4FB50
:106DF000F2F4A0F85040541E05FB0343B3FBF2F33A
:106E0000A0F84E30094BB3FBF2F30133A0F8543035
:106E1000B0F8483005FB0344036CB4FBF2F459436B
:106E20004464B1FBF2F2026430BD00BF005A62025A
:106E300070B504460D4649BB4FF4387207F05CF953
:106E4000012384F8A530492384F8ED30042384F825
:106E5000EE306FF03B0384F8EF30072384F8F03016
:106E60002B2384F8EC30FE2384F826317F2384F82A
:106E700099301F4BC4F88830202384F8F15084F8EF
:106E8000F25084F8F35084F89C3270BD012922D16D
:106E900000238269A0F8263280F81B32154B134478
:106EA000B3FBF2F3C0F8C43040F6B833A0F8C830F2
:106EB0001146438C8030FFF791FF0BF02DFA30B173
:106EC000E069FEF76FFD10B984F80C52DDE700238E
:106ED00084F80C32D9E70229D7D1B0F8C232D0F801
:106EE000BC228169BDE870408030FFF777BF00BFEA
:106EF00000E0FCFF7FC3C901074B93F90030184441
:106F0000142804DC10F17F0F03DB40B2704714201B
:106F100070476FF07E0070476C18002007B57F2324
:106F20000DF107008DF8073002F05EFF9DF9073084
:106F300068B10A4A5078404243FA80F0142808DCCD
:106F400010F17F0F07DB40B203B05DF804FB184679
:106F5000FAE71420F8E76FF07E00F5E76C180020E0
:106F6000024B00221A705A70704700BF6C18002044
:106F7000054B0168FF221A70044A116001791171F2
:106F800000221A70704700BF6E1800201800002001
:106F900007B5064B186800901B798DF804306846D9
:106FA000FFF7E6FF03B05DF804FB00BF9D3405006A
:106FB00008B5037801F00F0223F00F0313430629ED
:106FC000037003D8034B5B5C437008BDA8212A20E3
:106FD000FBF78EFD64B504000346407850B1DA78C3
:106FE0002A2A06D8044B1344DB791B1A584258410D
:106FF00070470120704700BF64B504002A2908B516
:10700000C17004D8064B1944CB79437008BDFF29E1
:1070100004D04FF48D612A20FBF76AFD0123F4E7C9
:1070200064B504002DE9F04385B0894602A91446F1
:10703000984609F08CFD054600283CD1039E34B9E2
:10704000012486F8A440204605B0BDE8F0833769E6
:107050002146384607F095FD014670B3194B5B8811
:10706000A3422CD301AA384607F0E0FE019B1D8005
:107070009D7096F8A4300198002B0CBF4946022160
:1070800009F0BCFF019822464146033006F0BCFFE0
:107090002146384607F0AAFD044618B97C212B206A
:1070A000FBF726FD02A80AF07FF8039BA3F8125213
:1070B00086F8A450C7E70124C5E70446C3E72C4679
:1070C000C1E700BF70180020024B987DC04300F05C
:1070D0000100704770180020034B987D80F002007B
:1070E000C0F34000704700BF7018002010B5094C75
:1070F00014220021204606F0FFFF1222002104F195
:10710000140006F0F9FF01232373231DC4E90033A3
:1071100010BD00BF8C1800207FB505460C4621B974
:1071200040F20B111020FBF7E3FC03888B80002357
:107130004B724669304607F06BFE014610B94FF4BA
:107140008A71EFE701AA304607F070FEE08010B9BF
:1071500040F21911E6E7FB2802D940F21B11E1E7E2
:10716000019809F053FF012801D0022805D12072AF
:10717000206828B94FF49971D4E740F22B11D1E778
:107180000199E288033106F03FFF304607F056FED2
:1071900010B940F23711C5E70021304607F08AFDEB
:1071A00010B94FF49E71BDE70A4BDA7D82B11A8B9C
:1071B0002888013A02A91A8309F0C9FC10B140F2EB
:1071C0004511AFE7039AB2F8B4300133A2F8B430F6
:1071D00004B070BD7018002010B520B940F27121C4
:1071E0001020FBF785FC41600272EFF3108472B649
:1071F000094B1A1D0260596819B1097A012908BFA3
:107200001A601A681060186004B962B6BDE81040D0
:1072100093F8260006F08EBD8C180020024B83F8F0
:107220002600FFF763BF00BF8C180020014B024A05
:107230001A6070477400002019710100F7B5514EB3
:10724000514F054673681B7A102B06D1FB7D23B185
:107250003B8B13B9002003B0F0BD3369ABB11B7A8F
:107260009BB13469002CF5D0237ADBB20522023BB6
:1072700022720E2B78D8DFE803F01925457777774F
:107280004E777777777777636A007468237A012B74
:10729000E0D0EFF3108372B672681268726003B9BF
:1072A00062B6237A002BD8D03461DDE7636823B956
:1072B0004FF4E1711020FBF71BFC2946204698474C
:1072C00004200FE0636813B940F2CB11F2E72946BE
:1072D000204698470346C3F30723012BADF804006B
:1072E000C0B244D0EFF3108372B6227A052AD1B22D
:1072F00001D0002941D1002222723261002B38D105
:1073000062B636E0636813B940F2D511D2E7204681
:1073100098470020E6E763680BB9E021CAE70B2233
:107320002A701A88A5F803200024012218696A71BE
:10733000AC71AA70214607F0BDFC346104208AE7D5
:1073400015232B70D4F80930C5F80330B8E760680E
:1073500010B940F23D21ADE70C4B29461B68984718
:1073600000233361022076E740F24621A2E703239F
:10737000237200283FF466AF6DE7002B7FF462AF05
:1073800062B65FE78C18002070180020740000209F
:107390000448037F23B904490222143009F02BBFAB
:1073A000704700BF8C180020E91102001B234FF02A
:1073B0001B128384038482618382C260038539B98E
:1073C0004FF4A473034AC3844384C261C38202613D
:1073D000704700BF4801480103460846B3F85820EB
:1073E000B3F84C109142F0B528BF1146B3F85040A5
:1073F000B3F85A20B3F84850B3F84270B3F8466077
:10740000A3F84210A24228BF2246B3F84A40A3F88C
:107410004620944238BF14468D4238BF0D468F42F5
:10742000A3F84850A3F84A402ED1B61A18BF012637
:10743000B3F84E50B3F85440B3F856E0B3F840C038
:10744000B3F84470A54228BF2546B3F85240A3F8CC
:107450004050744528BF7446AC45A3F8444002D15F
:10746000A74200D196B11B88A0F80930A0F80B50B4
:10747000A0F80D40A0F80F10A0F81120BDE8F040D2
:107480000349022209F0C9BE0126D1E7F0BD00BFC1
:10749000331202000B8BA2F80B304B8BA2F80D308D
:1074A0008B8BA2F80F30CB8BA2F809000249A2F80F
:1074B0001130104609F0ABBE73120200094AD2E93E
:1074C0000003434083EAB01181EA43214FEAF343CA
:1074D0005360054B116058434FEAF06000EB8000A9
:1074E000704700BFB4180020BB79379E094AD2E923
:1074F0000203434083EAB01181EA43214FEAF34398
:10750000D360054B916058434FEAF06000EB800078
:10751000704700BFB4180020BB79379E38B50A4CBD
:1075200004F1080508212846FBF77AFCD4E9022378
:107530001343F7D0FFF7DAFF2060FFF7D7FF236888
:1075400060600343F6D038BDB418002070B504461F
:1075500040680D4690F89E2001230021803009F0FC
:1075600019FB20B32846666809F09DFDA6F8B40211
:107570006068B0F8B432B0F89420013B9B1A9BB21B
:1075800047F6FD72934208D9282380F8BF30094995
:10759000B63009F03CFE002070BD00F2B62128464E
:1075A00009F07CFD63680A2283F89E20F3E701203E
:1075B000F2E700BFAD140200F8B5044640680D467E
:1075C00090F89E2001230021803009F0E3FA002882
:1075D00049D00021284609F034FD28B92946204623
:1075E000BDE8F84009F04EBF6068B5F80D30B0F85E
:1075F0009420A0F8B432D24313449BB247F6FD72F4
:10760000934208D9282380F8BF301849B63009F0D2
:10761000FEFD0020F8BD284609F00AFD09F075FBC3
:107620006768C7F8BC0206460146287909F071FB75
:10763000A7F8B6023146B5F80500676809F072FB95
:10764000C7F8B8022846666809F0F5FCA6F8C0023B
:107650002846666809F0F2FC6368A6F8C2020D22AB
:1076600083F89E20D5E70120D4E700BFAD140200C7
:1076700008B5406890F89E30152B04D04FF49371F4
:107680001F20FBF735FA012380F8DB30162380F842
:107690009E30BDE808400349022200F5317009F030
:1076A000AABD00BF57160200436830B5D3F88C401E
:1076B00014F001001DD14D680F4A8968A3F8D80065
:1076C0002A40C3F8EC20C2F3076242F0080221F41A
:1076D000FF6183F8EF2093F8DA20C904C90C013266
:1076E00044F00104C3F8F01083F8DA20C3F88C40AA
:1076F00030BD0120FCE700BF2F4904F770B5446896
:10770000037894F89D200D4604F18000072109F0CC
:1077100041FA70B36968194BAA680B40C4F8EC30A1
:1077200022F4FF62C3F3076343F00803D204D20CD0
:1077300084F8EF300023C4F8F02084F8D63084F8C1
:107740009D3094F8A92102F0FF06A2B92388A4F87D
:10775000AB3184F8AA616B68C4F8AD31AB680849F5
:10776000C4F8B131022204F2A11009F044FD304600
:1077700070BD0126FBE71E46F9E700BF2F4904F75D
:1077800089170200406890F8A9315BB90388A0F816
:10779000AB311A2380F8AA310349022200F2A1106A
:1077A00009F029BD704700BF8917020010B50446D3
:1077B000FEF7E2FD044B21F4FF61C9040340C90C4C
:1077C0006360A16010BD00BF2F4904F737B50C46B8
:1077D0004568FEF7D1FD094B95F8EC2021F4FF61D7
:1077E0000340C9040093C90C13408DF80030019187
:1077F0006B4603CB6060A16003B030BD2F4904F736
:1078000038B54468037894F89D200D4604F1800053
:10781000082109F0BFF918B9D4F88C30980741D481
:1078200094F8DD3099071AD4284609F05EFC84F8F4
:10783000E700B5F80530A4F8E830B5F80730A4F84B
:10784000EA3094F8DD3043F0020284F8DD20DA07F4
:1078500005D51549022204F1DE0009F0DEFC94F89A
:10786000DD30DB0713D4D4F88C3013F0020203D0E0
:1078700050214020FBF73CF943F00203C4F88C3060
:1078800094F8DA30A4F8D820013384F8DA3094F888
:107890009D30012B4FF0000003D184F89D0084F847
:1078A000D60038BD0120FCE799180200114A00F506
:1078B000006092F90010031340F3073081420BDDA2
:1078C00092F90120584242FA80F07F280DDC10F135
:1078D000800F0CDB40B2704792F90210814202DA4D
:1078E00092F90320EEE7002070477F2070476FF089
:1078F0007F007047C4180020F7B56FF4F473C71801
:10790000044697F86D0008F061F96FF4B4721444FE
:107910000546A068FFF7CAFF064658B3D4E900122F
:107920006FF000439A4208BFB1F1FF3F22D00AF046
:107930002AFCD4E90023904271EB03031AD3388860
:10794000694609F004F918B184217A20FBF7D0F8D0
:10795000691C02233246C9B2684608F045F948B9A5
:10796000054B9D880AF00FFC4FF47A76E6FB050183
:10797000C4E9000103B0F0BDC4180020044B9B68AB
:107980005843C3F580534B4303EB2030704700BF8F
:10799000C41800202DE9F04106464768FFF7BEFAFB
:1079A00074687F28054684F899001ED1002397F853
:1079B0003020012A67D1002B65D0706890F85231D1
:1079C000002B60D13B88A0F8533197F8993080F8AC
:1079D000553197F89A3080F85631BDE8F0412B497F
:1079E000022200F5A57009F006BC94F8B33084F8C3
:1079F0009A300146D4F88800FFF7C0FF244BC4F842
:107A000088001B7BF3B1FFF751FFD8B1D4E92012F6
:107A10006FF000439A4208BFB1F1FF3F12D00AF065
:107A2000B2FBD4E92023904271EB03030AD3D6F8CA
:107A3000048001F093FE174988F86D0008F2E91000
:107A400009F0F4FB94F99B2094F83110AB1A1BB2A7
:107A5000002BB8BF5B429BB28B42A7D3FF29A5D0B6
:107A600094F89C3094F832100133DBB2994284F8D8
:107A70009C3001D37F2A99D1002384F89C3084F86C
:107A80009B50012393E7BDE8F08100BF1B19020062
:107A9000C4180020F9780100F0B5204E0546307872
:107AA0000024147080B1431E7768DBB2181B0128D4
:107AB0000BDC07EBC40057F834604068884208BF0D
:107AC000AE4212D114700120F0BD1819461007EB18
:107AD000C60E57F836C0DEF80460AC45C0F3470068
